:020000040800F2
:1000000000280020E52600089D250008A3250008FB
:10001000A9250008AF250008B5250008000000004C
:10002000000000000000000000000000BB250008E8
:10003000C725000800000000D3250008DF250008C0
:100040002D2700082D2700082D2700082D27000840
:100050002D2700082D2700082D2700082D27000830
:100060002D2700082D2700082D2700082D27000820
:100070002D2700082D2700082D2700082D27000810
:100080002D2700082D2700082D2700082D27000800
:100090002D2700082D2700082D2700082D270008F0
:1000A0002D2700082D2700082D2700082D270008E0
:1000B0002D2700082D270008000000002D2700082C
:1000C0002D27000800000000000000002D27000878
:1000D000000000002D2700082D2700080000000068
:1000E0002D2700082D2700082D27000800000000FC
:1000F0000000000000000000000000000000000000
:0C01000000000000000000005FF808F1A3
:10010C0010B5054C237833B9044B13B10448AFF345
:10011C0000800123237010BD40000020000000006F
:10012C009444000808B5034B1BB103490348AFF3D3
:10013C00008008BD0000000044000020944400082A
:10014C00034613F8012B002AFBD1181A013870470B
:10015C0080F0004002E000BF81F0004142001FBF70
:10016C005FEA410392EA030F7FEA226C7FEA236C79
:10017C006AD04FEA1262D2EB1363C1BFD21841406E
:10018C0048404140B8BF5B42192B88BF704710F004
:10019C00004F40F4000020F07F4018BF404211F0A7
:1001AC00004F41F4000121F07F4118BF494292EA0F
:1001BC00030F3FD0A2F1010241FA03FC10EB0C003B
:1001CC00C3F1200301FA03F100F0004302D54942C8
:1001DC0060EB4000B0F5000F13D3B0F1807F06D375
:1001EC0040084FEA310102F10102FE2A51D2B1F16D
:1001FC00004F40EBC25008BF20F0010040EA030062
:10020C007047490040EB0000013A28BFB0F5000FE1
:10021C00EDD2B0FA80FCACF1080CB2EB0C0200FA97
:10022C000CF0AABF00EBC25052421843BCBFD040E6
:10023C001843704792F0000F81F4000106BF80F460
:10024C0000000132013BB5E74FEA41037FEA226C23
:10025C0018BF7FEA236C21D092EA030F04D092F0EE
:10026C00000F08BF0846704790EA010F1CBF002022
:10027C00704712F07F4F04D1400028BF40F000407F
:10028C00704712F100723CBF00F50000704700F09F
:10029C00004343F0FE4040F4000070477FEA2262C6
:1002AC0016BF08467FEA23630146420206BF5FEA97
:1002BC00412390EA010F40F4800070474FF0000397
:1002CC0004E000BF10F0004348BF40425FEA000C5E
:1002DC0008BF704743F0964301464FF000001CE006
:1002EC0050EA010208BF70474FF000030AE000BF5C
:1002FC0050EA010208BF704711F0004302D540429A
:10030C0061EB41015FEA010C02BF8446014600200B
:10031C0043F0B64308BFA3F18053A3F50003BCFA26
:10032C008CF2083AA3EBC25310DB01FA02FC6344D3
:10033C0000FA02FCC2F12002BCF1004F20FA02F2DA
:10034C0043EB020008BF20F00100704702F12002CD
:10035C0001FA02FCC2F1200250EA4C0021FA02F22E
:10036C0043EB020008BF20EADC7070474FF0FF0C33
:10037C001CEAD0521EBF1CEAD15392EA0C0F93EA2E
:10038C000C0F6FD01A4480EA010C400218BF5FEAD0
:10039C0041211ED04FF0006343EA501043EA511143
:1003AC00A0FB01310CF00040B1F5000F3EBF49003D
:1003BC0041EAD3715B0040EA010062F17F02FD2A41
:1003CC001DD8B3F1004F40EBC25008BF20F0010024
:1003DC00704790F0000F0CF0004C08BF49024CEA3B
:1003EC00502040EA51207F3AC2BFD2F1FF0340EACD
:1003FC00C250704740F400004FF00003013A5DDC3E
:10040C0012F1190FDCBF00F000407047C2F100027E
:10041C00410021FA02F1C2F1200200FA02FC5FEA6B
:10042C00310040F1000053EA4C0308BF20EADC70B5
:10043C00704792F0000F00F0004C02BF400010F427
:10044C00000F013AF9D040EA0C0093F0000F01F0D4
:10045C00004C02BF490011F4000F013BF9D041EAF6
:10046C000C018FE70CEAD15392EA0C0F18BF93EAF8
:10047C000C0F0AD030F0004C18BF31F0004CD8D122
:10048C0080EA010000F00040704790F0000F17BFA9
:10049C0090F0004F084691F0000F91F0004F14D0EF
:1004AC0092EA0C0F01D142020FD193EA0C0F03D147
:1004BC004B0218BF084608D180EA010000F000404A
:1004CC0040F0FE4040F40000704740F0FE4040F425
:1004DC00400070474FF0FF0C1CEAD0521EBF1CEAC4
:1004EC00D15392EA0C0F93EA0C0F69D0A2EB0302E2
:1004FC0080EA010C49024FEA402037D04FF080537C
:10050C0043EA111143EA10130CF000408B4238BF40
:10051C005B0042F17D024FF4000C8B4224BF5B1A4E
:10052C0040EA0C00B3EB510F24BFA3EB510340EA9C
:10053C005C00B3EB910F24BFA3EB910340EA9C004A
:10054C00B3EBD10F24BFA3EBD10340EADC001B01BA
:10055C0018BF5FEA1C1CE0D1FD2A3FF650AF8B425E
:10056C0040EBC25008BF20F0010070470CF0004C6B
:10057C004CEA50207F32C2BFD2F1FF0340EAC25096
:10058C00704740F400004FF00003013A37E792F057
:10059C00000F00F0004C02BF400010F4000F013AB5
:1005AC00F9D040EA0C0093F0000F01F0004C02BFB0
:1005BC00490011F4000F013BF9D041EA0C0195E719
:1005CC000CEAD15392EA0C0F08D142027FF47DAFB2
:1005DC0093EA0C0F7FF470AF084676E793EA0C0FA2
:1005EC0004D14B023FF44CAF08466EE730F0004CA0
:1005FC0018BF31F0004CCAD130F000427FF45CAF30
:10060C0031F000437FF43CAF5FE700BF4FEA40029C
:10061C00B2F1FE4F0FD34FF09E03B3EB12620DD924
:10062C004FEA002343F0004310F0004F23FA02F08E
:10063C0018BF404270474FF00000704712F1610F35
:10064C0001D1420205D110F0004008BF6FF000400C
:10065C0070474FF00000704780B582B000AF034682
:10066C000A46FB711346BB71FB79012B05D10122A4
:10067C004FF40041344803F02CF8FB79002B05D1E2
:10068C0000224FF40041304803F023F8BB7903F00B
:10069C000103DBB21A4601212C4803F01AF8BB798E
:1006AC0003F00203DBB21A460221284803F011F8CA
:1006BC00BB7903F00403DBB21A460421234803F090
:1006CC0008F8BB7903F00803DBB21A4608211F486F
:1006DC0002F0FFFFBB7903F01003DBB21A461021C6
:1006EC001A4802F0F6FFBB7903F02003DBB21A467E
:1006FC002021164802F0EDFFBB7903F04003DBB27A
:10070C001A464021114802F0E4FFBB7923F07F0325
:10071C00DBB21A4680210D4802F0DBFF01224FF4B8
:10072C008041094802F0D5FF012002F05DF800225B
:10073C004FF48041044802F0CCFF012002F054F841
:10074C0000BF0837BD4680BD0010014000080140C5
:10075C0080B500AF3F210020FFF77EFF00BF80BDBA
:10076C0080B582B000AF01220221174802F0B1FF20
:10077C0001224FF40051154802F0ABFF0023FB712E
:10078C0019E0FB79483BDBB219460020FFF764FF08
:10079C0040210020FFF760FF4023BB7103E00021E4
:1007AC000120FFF759FFBB795A1EBA71002BF6D105
:1007BC00FB790133FB71FB79072BE2D900BF00BF3A
:1007CC000837BD4680BD00BF000C01400010014041
:1007DC0080B582B000AF0346FB710B46BB7113466C
:1007EC007B71FB79002B0BD100224FF40051174881
:1007FC0002F06FFF01220221154802F06AFF0DE0A2
:10080C00FB79012B0AD100220221114802F061FF71
:10081C0001224FF400510D4802F05BFFBB79483BBD
:10082C00DBB219460020FFF717FF7B794033DBB2B0
:10083C0019460020FFF710FF064A7B791370064A11
:10084C00BB79137000BF0837BD4680BD0010014056
:10085C00000C01405C0000205D00002080B584B0DD
:10086C0000AF78600023FB8193E04F4B1B78402B4B
:10087C0016D1002202214D4802F02BFF01224FF429
:10088C0000514B4802F025FF4A4B1B78483BDBB22A
:10089C0019460020FFF7E0FE40210020FFF7DCFEA8
:1008AC00414B1B78802B02D13F4B00221A70424BDC
:1008BC001B78002B09D1B7F90E307A6813441B78DA
:1008CC0019460120FFF7C8FE0AE0B7F90E307A6826
:1008DC0013441B78DB43DBB219460120FFF7BCFE47
:1008EC00314B1B780133DAB22F4B1A70334BB3F9FF
:1008FC000030002B11D120212C4802F0D3FE0346EE
:10090C00002B0AD04021294802F0CCFE0346002BD4
:10091C0003D02B4B06221A7035E00821234802F035
:10092C00C1FE0346002B03D0254B01221A702AE08E
:10093C0080211E4802F0B6FE0346002B03D0204B4C
:10094C0002221A701FE02021184802F0ABFE034669
:10095C00002B03D01A4B03221A7014E010211348F9
:10096C0002F0A0FE0346002B03D0154B04221A7094
:10097C0009E040210D4802F095FE0346002B02D001
:10098C000F4B05221A70B7F90E309BB201339BB294
:10099C00FB81B7F90E30052B7FF767AF00BF00BFA7
:1009AC001037BD4680BD00BF5C000020000C01402C
:1009BC00001001405D000020750000207800002030
:1009CC007700002080B582B000AF786086E07B684D
:1009DC001B78402B12D97B681B785A2B0ED87B685E
:1009EC001B78A3F1410213465B0013445B001A46CB
:1009FC003F4B13441846FFF731FF6CE07B681B78C4
:100A0C00602B12D97B681B787A2B0ED87B681B78ED
:100A1C00A3F1610213465B0013445B001A46354B8D
:100A2C0013441846FFF71AFF55E07B681B782F2BF1
:100A3C0012D97B681B78392B0ED87B681B78A3F1F5
:100A4C00300213465B0013445B001A462A4B1344D6
:100A5C001846FFF703FF3EE07B681B78202B03D181
:100A6C002648FFF7FBFE36E07B681B782E2B03D164
:100A7C002348FFF7F3FE2EE07B681B783A2B03D15B
:100A8C002048FFF7EBFE26E07B681B782F2B03D169
:100A9C001D48FFF7E3FE1EE07B681B782D2B03D16E
:100AAC001A48FFF7DBFE16E07B681B78252B03D179
:100ABC001748FFF7D3FE0EE07B681B78282B03D179
:100ACC001448FFF7CBFE06E07B681B78292B02D17C
:100ADC001148FFF7C3FE7B6801337B607B681B7892
:100AEC00002B7FF474AF00BF00BF0837BD4680BD3C
:100AFC00BC470008204700085848000894480008E4
:100B0C009A480008A0480008A6480008AC4800080D
:100B1C00B8480008BE480008C448000880B485B036
:100B2C0000AF0346FB710123FB6005E0FA68134636
:100B3C009B0013445B00FB60FB795A1EFA71002B7F
:100B4C00F4D1FB6818461437BD4680BC70470000D2
:100B5C0080B588B000AF78600B46FB700023FB615A
:100B6C000123BB610023FB750023BB75FB787B75F0
:100B7C007868FFF74BFD0346FB6108E0FB7D013312
:100B8C00FB75BA6913469B0013445B00BB61FA69A1
:100B9C00BB699A42F2DA0123BB6120E0FB7D013B89
:100BAC00DBB21846FFF7BAFFB861FA69BB6992FB72
:100BBC00F3F3DAB2BB7D591CB9753032D2B22033A3
:100BCC003B4403F8182CFB69BA6993FBF2F2B96940
:100BDC0001FB02F29B1AFB61FB7D013BFB75FB7D6C
:100BEC00012BDBD8FA69344B83FB02139910D31712
:100BFC00C91A0B469B000B445B00D11ACAB2BB7DD1
:100C0C00591CB9753032D2B220333B4403F8182C3E
:100C1C00FB7803F00F03002B34D0BB7D5A1CBA7544
:100C2C0020333B442E2203F8182CFB7823F01003BE
:100C3C00FB7022E07868FFF7E9FC0346FB61F8697A
:100C4C00FFF740FB034619467868FFF785FA034621
:100C5C007B601A497868FFF789FB03467B607868EC
:100C6C00FFF7D4FC0346DAB2BB7D591CB9753032A0
:100C7C00D2B220333B4403F8182CFB785A1EFA707E
:100C8C00002BD7D1BB7D20333B44002203F8182C1A
:100C9C007B7D03F0F003102B05D107F108031846F8
:100CAC0001F0C8FA04E007F108031846FFF78AFEC2
:100CBC0000BF2037BD4680BD6766666600002041D8
:100CCC0080B584B000AF0346B9607A60FB73FB7BE0
:100CDC0003F00103002B23D1294B01221A700022AF
:100CEC0007210020FFF774FDB868FFF76BFE244B5B
:100CFC0000221A707868FFF723FA0346DBB21A4613
:100D0C00520013445B00DBB2C3F14003DBB21A4662
:100D1C0007210120FFF75CFD7868FFF753FE27E001
:100D2C00FB7B03F00103002B22D0002207210020C3
:100D3C00FFF74EFDB868FFF745FE114B01221A7004
:100D4C007868FFF7FDF90346DBB21A4652001344EC
:100D5C005B00DBB2C3F14003DBB21A460721012072
:100D6C00FFF736FD7868FFF72DFE054B00221A7051
:100D7C00044B00221A7000BF1037BD4680BD00BF67
:100D8C00750000207700002080B582B000AF0346CC
:100D9C00FB710B46BB7113467B71124B1B78002BFE
:100DAC000BD17A79B979FB791846FFF711FD0E480A
:100DBC00FFF754FD052001F017FD7A79B979FB791D
:100DCC001846FFF705FD0948FFF748FD054B1B7852
:100DDC00002B02D1052001F007FD00BF0837BD46EE
:100DEC0080BD00BF77000020B2480008944800087E
:100DFC0080B582B000AF0023FB713023BB710023A0
:100E0C007B7134233B71342202210020FFF7E0FC7C
:100E1C00A448FFF7D7FD052206210020FFF7D8FCD8
:100E2C00A148FFF7CFFD342202210020FFF7D0FCB0
:100E3C009E48FFF7C7FD9E4B00221A7040219D482B
:100E4C0002F030FC0346002B03D1994B1B78052B89
:100E5C0045D1994B1B780133DAB2974B1A7000BF0E
:100E6C004021944802F01EFC0346002BF8D1924B13
:100E7C001B78082B02D1904B00221A708E4B1B78DA
:100E8C00012B0BD800237B718B4B1B781A4652001D
:100E9C0013445B00DBB234333B710AE001237B71FA
:100EAC00854B1B781A46520013445B00DBB20C3B9B
:100EBC003B713A797B7902211846FFF789FC7B4814
:100ECC00FFF780FD0023FB717B4B1B787B49FA7984
:100EDC00CA547A4AD25C764B1A703023BB713A7979
:100EEC007B7903211846FFF74FFF1021714802F060
:100EFC00D9FB0346002B03D16D4B1B78042B48D137
:100F0C006B4B00221A7000BF10216A4802F0CAFB1A
:100F1C000346002BF8D13A797B7902211846FFF76A
:100F2C0057FCFB79252B01D10023FB71FB79013395
:100F3C00FB71FB79092B0BD8FA7913465B00134430
:100F4C005B001A465E4B13441846FFF787FC12E011
:100F5C00FB79092B0FD9FB79242B0CD8FB79A3F146
:100F6C000A0213465B0013445B001A46554B1344AC
:100F7C001846FFF773FCBB79392B02D14023BB71A8
:100F8C0004E0BB795A2B01D12F23BB71BB79013300
:100F9C00BB712021474802F085FB0346002B03D18F
:100FAC00434B1B78032B48D100BF2021414802F052
:100FBC0079FB0346002BF8D13A797B79022118464C
:100FCC00FFF706FCFB79002B01D12423FB71FB7985
:100FDC00013BFB71FB79092B10D9FB79242B0DD824
:100FEC00FB79A3F10A0213465B0013445B001A461B
:100FFC00344B13441846FFF731FC0DE0FB79092BF9
:10100C000AD8FA7913465B0013445B001A462C4B42
:10101C0013441846FFF722FCBB79302B02D15B231B
:10102C00BB7104E0BB79412B01D13A23BB71BB7975
:10103C00013BBB711E4B00221A701F4B1B781946CB
:10104C001E4ABB79535480211A4802F02BFB0346ED
:10105C00002B03D1164B1B78022B0DD1164B1B7892
:10106C000133164A0021D154134B00221A70124B33
:10107C001A780F4B1A7011E008210E4802F012FB7F
:10108C000346002B04D10A4B1B78012B7FF4D6AE00
:10109C000A4B00221A70064B00221A7000BF083748
:1010AC00BD4680BDAC440008B8440008CC440008E0
:1010BC0077000020000C014076000020000000208A
:1010CC0058480008BC47000880B582B000AF002328
:1010DC00FB712023BB719F48FFF732F80346FB706E
:1010EC0000237B7100233B71002200210020FFF7BD
:1010FC006FFB9948FFF766FC984B00221A70974BD0
:10110C001A78974B1A70052206210020FFF760FB16
:10111C009448FFF757FC4021934802F0C3FA03466A
:10112C00002B03D18E4B1B78052B3AD100BF4021ED
:10113C008D4802F0B7FA0346002BF8D1874B1B7889
:10114C000133DAB2854B1A70844B1B78142B02D105
:10115C00824B00221A70814B1B780A2B09D8002372
:10116C007B717E4B1B781A46520013445B003B711B
:10117C000AE001237B71794B1B781A465200134409
:10118C005B00DBB2403B3B71744B1B781A46774BD0
:10119C00202199540023FB71714AFB791370202391
:1011AC00BB713A797B7901211846FFF7EDFD1021CF
:1011BC006D4802F077FA0346002B03D1684B1B787D
:1011CC00042B3FD100BF1021674802F06BFA034695
:1011DC00002BF8D13A797B7900211846FFF7F8FA01
:1011EC00FB791A2B01D1FF23FB71FB790133FB71C6
:1011FC00FB79002B03D15E48FFF730FB11E0FB7944
:10120C00002B0ED0FB791A2B0BD8FB795A1E1346E8
:10121C005B0013445B001A46564B13441846FFF709
:10122C001DFBBB790133BB71BB79212B02D141234F
:10123C00BB7104E0BB795B2B01D12023BB71484B04
:10124C0000221A702021484802F02CFA0346002B89
:10125C0003D1434B1B78032B3FD100BF20214248C5
:10126C0002F020FA0346002BF8D13A797B79002161
:10127C001846FFF7ADFAFB79002B01D11B23FB714C
:10128C00FB79013BFB71FB79002B0FD0FB791A2BFF
:10129C000CD8FB795A1E13465B0013445B001A46AC
:1012AC00344B13441846FFF7D9FA05E0FB79002BB1
:1012BC0002D12F48FFF7D2FABB79013BBB71BB7946
:1012CC001F2B02D15A23BB7104E0BB79402B01D1F7
:1012DC002023BB71224B00221A70204B1B7819461D
:1012EC001C4ABB79535480211F4802F0DBF903469A
:1012FC00002B03D11A4B1B78022B0DD1174B1B78EB
:10130C000133144A0021D154144B00221A70134B90
:10131C001A78134B1A7019E00821134802F0C2F91D
:10132C000346002B04D10E4B1B78012B7FF4F3AE3C
:10133C000A4B1B78FA789A4205D2084B1B7801337A
:10134C00044A0021D154064B00221A7000BF083702
:10135C00BD4680BD60000020D0440008760000200F
:10136C0077000020E8440008000C01400000002039
:10137C0094480008BC47000880B582B000AF786084
:10138C00052206210020FFF723FA0821194802F054
:10139C0089F90346002B1FD18021164802F082F9EF
:1013AC000346002B18D1144B1B78002B14D17868F2
:1013BC00FFF708FB052001F017FA0F4B1B78002BE9
:1013CC000AD1052206210020FFF702FA0B48FFF78D
:1013DC00F9FA052001F008FA0821064802F062F932
:1013EC000346002B02D0044B01221A7000BF0837B1
:1013FC00BD4680BD000C014077000020FC44000875
:10140C0080B582B000AF4FF000037B600123FB700E
:10141C00002200210020FFF7DBF93E48FFF7D2FA4B
:10142C00002200210120FFF7D3F93A48FFF7CAFA4E
:10143C0000233B8047E03B8803F001039BB2002B69
:10144C0006D1FB78002219460020FFF7C1F907E00E
:10145C00FB785A1CFA70002219460120FFF7B8F9E4
:10146C00B7F90030082B0EDC2B48FFF7ABFAB7F9B5
:10147C00003001331846FEF725FF034600211846BD
:10148C00FFF766FB02E02548FFF79CFA2448FFF7BC
:10149C0099FAB7F90030234A52F823300221184642
:1014AC00FFF756FBB7F900301E4A52F823301946A5
:1014BC007868FEF753FE03467B60B7F900309BB2A9
:1014CC0001339BB23B80184BB3F90030B7F90020C5
:1014DC009A42B0DB002206210020FFF779F913486D
:1014EC00FFF770FA104BB3F900301846FEF7EAFE1E
:1014FC00034619467868FEF7EDFF034602211846AD
:10150C00FFF726FB0A48FFF75DFA00BF0837BD4618
:10151C0080BD00BF10450008184500081C45000898
:10152C00204500080C00002078000020244500080D
:10153C003045000880B582B000AF012000F062FE9B
:10154C003D4800F077FE002000F05CFE3B4800F0C8
:10155C0071FE3B4800F06EFE3A4800F06BFE3A48D4
:10156C0000F068FE394800F065FE394800F062FE74
:10157C004FF000037B600123FB7032E0354800F034
:10158C0059FEFB78092B0CD8334800F053FEFB783E
:10159C001846FEF793FE034610211846FFF7D8FABB
:1015AC0002E02E4800F046FE2D4800F043FEFB788A
:1015BC00013B2C4A52F8233012211846FFF7C8FA87
:1015CC00FB78013B274A52F8233019467868FEF71E
:1015DC00C5FD03467B601A4800F02CFEFB780133F6
:1015EC00FB70FB78204AB2F900209342C6DD1E4BFB
:1015FC00B3F900301846FEF765FE034619467868C5
:10160C00FEF768FF03467B60012000F0FBFD1748E6
:10161C0000F010FE164800F00DFE12217868FFF75E
:10162C0097FA074800F006FE124800F003FE00BFD0
:10163C000837BD4680BD00BF38450008600000205B
:10164C005445000858450008000000206445000877
:10165C006845000884450008184500081C4500082A
:10166C00884500080C0000207800002094450008F4
:10167C00B0450008BC45000880B582B000AF00231F
:10168C00FB710023BB7134237B71204B00221A7039
:10169C001E4B1A781E4B1A707A79BB7902211846A8
:1016AC00FFF796F81B48FFF78DF940211A4801F017
:1016BC00F9FF0346002B03D1154B1B78052B4ED19C
:1016CC00124B1B780133DAB2104B1A7000BF402159
:1016DC00114801F0E7FF0346002BF8D10B4B1B78A8
:1016EC00042B02D1094B00221A70084B1B78012BDA
:1016FC0014D80023BB71054B1B781A4652001344B7
:10170C005B00DBB234337B7113E000BF760000204A
:10171C0077000020DC450008000C01400123BB7160
:10172C00B14B1B781A46520013445B00DBB20C3BE6
:10173C007B71342202210020FFF74AF8AB48FFF7F7
:10174C0041F97A79BB7902211846FFF741F8A8488C
:10175C00FFF738F90023FB71A64AFB7913701021AF
:10176C00A54801F09FFF0346002B03D1A14B1B782A
:10177C00042B23D19F4B00221A7000BF10219E48CE
:10178C0001F090FF0346002BF8D17A79BB79022146
:10179C001846FFF71DF8FB79092B01D1FF23FB71CC
:1017AC00FB790133FB71FA7913465B0013445B0040
:1017BC001A46924B13441846FFF750F820218E48D6
:1017CC0001F070FF0346002B03D18A4B1B78032BCF
:1017DC0023D1884B00221A7000BF2021864801F0CB
:1017EC0061FF0346002BF8D17A79BB7902211846A8
:1017FC00FEF7EEFFFB79002B01D10A23FB71FB797D
:10180C00013BFB71FA7913465B0013445B001A46EB
:10181C007A4B13441846FFF721F8734B1B78194683
:10182C00FB793033DAB201F108033B4403F8082C9E
:10183C008021714801F036FF0346002B04D16D4B1B
:10184C001B78022B40F0E4806A4B00221A703B7824
:10185C00382B40F0BD807B78342B40F0B980BB78BE
:10186C00322B40F0B580FB78312B40F0B180FEF785
:10187C0077FF142200210020FEF7AAFF6048FFF733
:10188C00A1F8342202210020FEF7A2FF5D4BB3F930
:10189C0000301846FEF716FD034600211846FFF7E8
:1018AC0057F95948FFF78EF8524B00221A70102145
:1018BC00514801F0F7FE0346002B03D14D4B1B782A
:1018CC00042B2FD14F4BB3F900306D2B08DC4D4B53
:1018DC00B3F900309BB201339BB21AB2494B1A8058
:1018EC0000BF1021444801F0DDFE0346002BF8D167
:1018FC00342202210020FEF76BFF424BB3F900307B
:10190C00632B04DC00214FF00000FFF721F93D4B65
:10191C00B3F900301846FEF7D5FC034600211846F3
:10192C00FFF716F92021344801F0BCFE0346002BCA
:10193C0003D1304B1B78032B2FD1324BB3F9003032
:10194C005A2B08DD2F4BB3F900309BB2013B9BB2F5
:10195C001AB22C4B1A8000BF2021274801F0A2FE9E
:10196C000346002BF8D1342202210020FEF730FF71
:10197C00244BB3F90030632B04DC00214FF0000042
:10198C00FFF7E6F81F4BB3F900301846FEF79AFC48
:10199C00034600211846FFF7DBF88021164801F0BA
:1019AC0081FE0346002B07D10821134801F07AFE73
:1019BC000346002B02D177E700BF00E000BF00BF59
:1019CC00094B00221A70084B1A780A4B1A702EE039
:1019DC00FEF7C6FE142202210020FEF7F9FE0B488A
:1019EC00FEF7F0FF23E000BF76000020E44500087E
:1019FC00CC44000877000020000C01405848000837
:101A0C00EC4500080A000020FC45000808460008C8
:101A1C0008210C4801F046FE0346002B04D10A4B6A
:101A2C001B78012B7FF441AE074B00221A70FEF796
:101A3C0097FE00F0CDFA002000F074FA00BF0837D2
:101A4C00BD4680BD000C01407700002080B588B0F9
:101A5C0000AFB44BB3F90030092B03DCB248FFF7ED
:101A6C008BFC02E0B148FFF787FCB14B1B78062BCF
:101A7C0017D1AF4B00221A70FEF772FE1422002110
:101A8C000020FEF7A5FEAB48FEF79CFF3422022196
:101A9C000020FEF79DFEA848FEF794FFFFF7ECFD33
:101AAC00F2E10821A54801F0FDFD0346002B03D10E
:101ABC009F4B1B78012B68D10223FB779C4B002298
:101ACC001A70052206210020FEF782FE9C48FEF7C4
:101ADC0079FFFB7F9B4A9C491846FFF7F1F800BF42
:101AEC000821964801F0DEFD0346002BF8D138E0C2
:101AFC004021924801F0D6FD0346002B09D0FB7F14
:101B0C0083F00103FB77FB7F8E4A8F491846FFF762
:101B1C00D7F800BF4021894801F0C4FD0346002BD3
:101B2C00F8D18021854801F0BDFD0346002B18D06B
:101B3C0000BF8021814801F0B5FD0346002BF8D190
:101B4C00FB7F03F00103002B02D1FFF7BDFA06E087
:101B5C00FB7F03F00103002B01D0FFF749F90023B1
:101B6C00FB770821754801F09DFD0346002B04D13D
:101B7C00FB7F03F00203002BBAD1FEF7F1FD00F05E
:101B8C0027FA012000F0CEF97EE180216B4801F0AC
:101B9C0089FD0346002B04D1654B1B78022B40F0CA
:101BAC00F08000BF8021654801F07CFD0346002BCE
:101BBC00F8D15C4BB3F90030092B00F36581594B1C
:101BCC00B3F900309BB201339BB21AB2554B1A8059
:101BDC00052206210020FEF7FBFD5C48FEF7F2FE15
:101BEC00002000F09FF90123BB614FF4C8737B61A7
:101BFC0000233B61564BFB60564801F045FA64E00C
:101C0C00152206210120FEF7E3FD5348FEF7DAFE0C
:101C1C00012000F0E9FD4F4800F0E2FE0023BB601C
:101C2C0017E001214B4800F089FF4A4801F08CF87D
:101C3C000246BB691344BB610821404801F032FDE8
:101C4C000346002B02D03A4B01221A70BB680133B9
:101C5C00BB60BB68B3F57A7FE3DBBB693F4A82FBB1
:101C6C0003129211DB17D31ABB61B869FEF72AFB7A
:101C7C0003463B491846FEF779FB0346394918469B
:101C8C00FEF774FB0346FB60F868FEF7BFFC0246E8
:101C9C003B69934204DAF868FEF7B8FC03463B61F3
:101CAC00F868FEF7B3FC0346B3F5167F02DD40F28D
:101CBC0002337B61152206210120FEF789FD2A489B
:101CCC00FEF780FE012000F08FFDF868FEF79EFC09
:101CDC0002467B69934203DA154B1B78012B8FD19B
:101CEC00134B1B78012B43D10E4BB3F90030002B57
:101CFC0008D00C4BB3F900309BB2013B9BB21AB22B
:101D0C00084B1A80012000F00DF905220621002055
:101D1C00FEF75EFD1548FEF755FE4FF47A7000F0A5
:101D2C0063FD2AE078000020184600082C460008C5
:101D3C007700002040460008DC450008000C0140FC
:101D4C0050460008644600086846000870460008C3
:101D5C000000FA437C00002084460008D34D62103A
:101D6C005940533A00007A44884600088C460008D3
:101D7C003B691BB2184600F0A1F94A4B00221A70BD
:101D8C0082E02021484801F08DFC0346002B03D152
:101D9C00444B1B78032B6AD100BF2021424801F031
:101DAC0081FC0346002BF8D1404BB3F90030002BDB
:101DBC006AD0FEF7D5FC0223FB71FFF721FBFB7900
:101DCC003B4A3C491846FEF77BFF39E04021364838
:101DDC0001F068FC0346002B09D0FB7983F001036A
:101DEC00FB71FB79324A33491846FEF769FF00BF95
:101DFC0040212D4801F056FC0346002BF8D18021E0
:101E0C00294801F04FFC0346002B19D000BF80215C
:101E1C00254801F047FC0346002BF8D1FB7903F071
:101E2C000103002B05D1214B00221A800023FB71EA
:101E3C0006E0FB7903F00103002B01D0FFF77AFBDE
:101E4C000821194801F02EFC0346002B04D1FB7924
:101E5C0003F00203002BB9D1FEF782FC00F0B8F8B6
:101E6C00012000F05FF80F4B00221A700CE01021DB
:101E7C000D4801F017FC0346002B03D1094B1B78CE
:101E8C00042B01D100F018F800BF1021064801F016
:101E9C0009FC0346002BF8D100BF00BF2037BD461C
:101EAC0080BD00BF77000020000C014078000020AE
:101EBC00A0460008A846000880B500AF154B0022CC
:101ECC001A70154BB3F90030002B08D0124BB3F934
:101EDC0000309BB2013B9BB21AB20F4B1A80052209
:101EEC0006210020FEF774FC0C48FEF76BFD052064
:101EFC0000F07AFC1E2206210020FEF769FC08483F
:101F0C00FEF760FD052000F06FFC012000F00AF8E0
:101F1C0000BF80BD7700002078000020AC46000890
:101F2C00C046000880B582B000AF0346FB711E228C
:101F3C0004210020FEF74CFC1E4BB3F90030092B9A
:101F4C000EDC1D48FEF73EFD1A4BB3F90030184667
:101F5C00FEF7B8F9034600211846FEF7F9FD02E03A
:101F6C001648FEF72FFD1648FEF72CFD34220421EF
:101F7C000020FEF72DFCFB79002B04D00D4BB3F9A0
:101F8C000030002B03D10F48FEF71CFD0AE0094B73
:101F9C00B3F90030013B0C4A52F8233002211846A9
:101FAC00FEF7D6FD0948FEF70DFD00BF0837BD460C
:101FBC0080BD00BF78000020CC4400081C45000800
:101FCC00CC460008D04600080C000020D84600087B
:101FDC0080B500AF002200210020FEF7F9FB0E486F
:101FEC00FEF7F0FC002202210020FEF7F1FB0B486B
:101FFC00FEF7E8FC342202210020FEF7E9FB08483A
:10200C00FEF7E0FC002204210020FEF7E1FB05486E
:10201C00FEF7D8FC00BF80BD60000020E44600083D
:10202C0000000020F046000880B586B000AFF860D4
:10203C00B9607A603B60BA687B68D31A1846FEF7C1
:10204C0041F9034619463868FEF790F903467B615F
:10205C007869FEF7DBFA03461846FEF733F90346B8
:10206C0012491846FEF736FA03461946F868FEF789
:10207C0073F80346FB600E4BB3F90030013B0D497E
:10208C00FA6841F823200120FFF74CFF05220621B6
:10209C000020FEF79DFB0848FEF794FC4FF47A7085
:1020AC0000F0A2FB00BF1837BD4680BD00002041E8
:1020BC00780000200C000020F846000880B582B0A3
:1020CC0000AF0346FB80B7F9063040F254629342EE
:1020DC000EDCB7F9063040F2FB52934208DDB7F93B
:1020EC0006103C4B40F2FC523B48FFF79DFF6CE066
:1020FC00B7F9063040F2FB5293420EDCB7F90630CA
:10210C0040F28652934208DDB7F90610334B40F289
:10211C0087523348FFF788FF57E0B7F9063040F293
:10212C00865293420EDCB7F9063040F2D24293420B
:10213C0008DDB7F906102B4B40F2D3422A48FFF7C3
:10214C0073FF42E0B7F9063040F2D24293420EDC04
:10215C00B7F9063040F29642934208DDB7F9061003
:10216C00224B40F297422248FFF75EFF2DE0B7F971
:10217C00063040F2964293420EDCB7F9063040F23C
:10218C004442934208DDB7F906101A4B40F245421F
:10219C001948FFF749FF18E0052206210020FEF739
:1021AC0017FB1648FEF70EFC154BB3F900309BB22B
:1021BC00013B9BB21AB2124B1A800120FFF7B2FE00
:1021CC004FF47A7000F010FB00BF00BF0837BD461B
:1021DC0080BD00BF2A3A923D6666264052B89E3DAD
:1021EC0000006040569FAB3D0000A0401748D03D1A
:1021FC003333B3406688E33D0000D0400C47000801
:10220C007800002080B584B000AF0346FB711D231D
:10221C003B7321237B73FB79BB7307F10C016423A4
:10222C000322034801F084FF00BF1037BD4680BD78
:10223C00AC00002080B582B000AF78607868FDF704
:10224C007FFF03469AB264237968034801F070FF5C
:10225C0000BF0837BD4680BDAC00002080B584B0FF
:10226C0000AF3B1D00221A605A609A60184B194A45
:10227C001A60174B00229A60154B01221A73144BEB
:10228C0000221A75124B4FF46022DA61104B0022B7
:10229C005A600F4B01221A610D4800F0C9FA03462F
:1022AC00002B01D000F03DF908237B600123BB60BB
:1022BC000723FB603B1D1946054800F051FD034602
:1022CC00002B01D000F02DF900BF1037BD4680BDAA
:1022DC007C0000200024014080B588B000AF7860FD
:1022EC0007F1100300221A605A609A60DA607B686A
:1022FC001B68144A934221D1134B9B69124A43F435
:10230C0000739361104B9B6903F40073FB60FB68D3
:10231C000D4B9B690C4A43F0080393610A4B9B6974
:10232C0003F00803BB60BB6801233B6103237B61A3
:10233C0007F110031946054801F038F800BF2037A3
:10234C00BD4680BD0024014000100240000C01403D
:10235C0080B588B000AF07F1100300221A605A60F4
:10236C009A60DA603D4B9B693C4A43F010039361E1
:10237C003A4B9B6903F01003FB60FB68374B9B697E
:10238C00364A43F020039361344B9B6903F02003DE
:10239C00BB60BB68314B9B69304A43F004039361CB
:1023AC002E4B9B6903F004037B607B682B4B9B6972
:1023BC002A4A43F008039361284B9B6903F00803F6
:1023CC003B603B6800224FF46041254801F081F9E5
:1023DC000022FF21234801F07CF90022022122482F
:1023EC0001F077F94FF460433B6101237B610023DB
:1023FC00BB610223FB6107F110031946184800F07A
:10240C00D5FFFF233B6101237B610023BB610223CA
:10241C00FB6107F110031946124800F0C7FF0223B5
:10242C003B6101237B610023BB610223FB6107F14C
:10243C00100319460C4800F0B9FFF8233B61002348
:10244C007B610223BB6107F110031946064800F0BB
:10245C00ADFF00BF2037BD4680BD00BF001002405D
:10246C000010014000080140000C014080B500AF95
:10247C0000F058F900F010F8FFF76AFFFFF7EEFED6
:10248C0000F0B4F8FEF764F9FFF7A2FD0020FFF7A7
:10249C0049FDFFF7DBFAFCE780B590B000AF07F120
:1024AC00180328220021184601F0E6FF3B1D0022EC
:1024BC001A605A609A60DA601A610123BB614FF4AA
:1024CC008033FB6100233B620123BB6202237B63ED
:1024DC004FF48033BB634FF4E013FB6307F1180335
:1024EC00184601F00FF90346002B01D000F019F843
:1024FC000F237B600223BB600023FB604FF48063DF
:10250C003B6100237B613B1D0221184601F07CFBE3
:10251C000346002B01D000F004F800BF4037BD4645
:10252C0080BD80B400AF72B600BFFEE780B485B04A
:10253C0000AF154B9B69144A43F001039361124B96
:10254C009B6903F00103BB60BB680F4BDB690E4A50
:10255C0043F08053D3610C4BDB6903F080537B60F9
:10256C007B680A4B5B68FB60FB6823F0E063FB60F5
:10257C00FB6843F00073FB60044AFB68536000BFC8
:10258C001437BD4680BC704700100240000001406B
:10259C0080B400AFFEE780B400AFFEE780B400AFBC
:1025AC00FEE780B400AFFEE780B400AFFEE780B476
:1025BC0000AF00BFBD4680BC704780B400AF00BF09
:1025CC00BD4680BC704780B400AF00BFBD4680BC28
:1025DC00704780B500AF00F0EBF800BF80BD80B451
:1025EC0000AF00BFBD4680BC7047000080B500AF97
:1025FC00114B124A1A60104B4FF416525A600E4B84
:10260C0000229A600C4B0022DA600B4B00221A61FC
:10261C00094B0C225A61084B00229A61064B00228E
:10262C00DA61054801F034FD0346002B01D0FFF7B9
:10263C0078FF00BF80BD00BFAC0000200038014017
:10264C0080B588B000AF786007F1100300221A60E3
:10265C005A609A60DA607B681B681C4A934231D1DD
:10266C001B4B9B691A4A43F480439361184B9B693B
:10267C0003F48043FB60FB68154B9B69144A43F0E1
:10268C0004039361124B9B6903F00403BB60BB68AA
:10269C004FF400733B6102237B610323FB6107F161
:1026AC00100319460B4800F081FE4FF480633B6128
:1026BC0000237B610023BB6107F110031946054819
:1026CC0000F074FE00BF2037BD4680BD00380140CD
:1026DC000010024000080140FFF781FF0B480C4935
:1026EC000C4A002302E0D458C4500433C4188C4262
:1026FC00F9D3094A094C002301E013600432A242C9
:10270C00FBD301F095FEFFF7B1FE704700000020EF
:10271C00400000201449000840000020F800002070
:10272C00FEE7000080B500AF084B1B68074A43F07A
:10273C0010031360032000F005FE0F2000F008F8D2
:10274C00FFF7F4FE0023184680BD00BF00200240B6
:10275C0080B582B000AF7860124B1A68124B1B78B0
:10276C0019464FF47A73B3FBF1F3B2FBF3F318464B
:10277C0000F00FFE0346002B01D001230EE07B6816
:10278C000F2B0AD8002279684FF0FF3000F0E5FDDE
:10279C00064A7B681360002300E0012318460837C3
:1027AC00BD4680BD340000203C00002038000020D5
:1027BC0080B400AF054B1B781A46054B1B681344BD
:1027CC00034A136000BFBD4680BC70473C0000202C
:1027DC00F400002080B400AF024B1B681846BD46C5
:1027EC0080BC7047F400002080B584B000AF7860E6
:1027FC00FFF7F0FFB8607B68FB60FB68B3F1FF3F4D
:10280C0005D00A4B1B781A46FB681344FB6000BFCB
:10281C00FFF7E0FF0246BB68D31AFA689A42F7D872
:10282C0000BF00BF1037BD4680BD00BF3C0000207C
:10283C0080B586B000AF78600023FB7500233B6148
:10284C000023BB600023FB607B68002B01D10123BC
:10285C00BEE07B689B68002B7B689B6A002B09D1D0
:10286C007B680022DA627B68002283F82420786877
:10287C00FFF732FD786800F0C5FB0346FB757B68FB
:10288C009B6A03F01003002B40F09980FB7D002B1A
:10289C0040F095807B689B6A23F4885323F00203F5
:1028AC0043F002027B689A627B685A687B68DB693A
:1028BC001A437B681B7B5B001343BA681343BB60F2
:1028CC007B689B68B3F5807F03D07B689B68012B8A
:1028DC0002D14FF4807300E000233A6913433B614B
:1028EC007B681B7D012B19D17B681B7B002B09D1CD
:1028FC007B689B69013B5A033B69134343F40063B8
:10290C003B610BE07B689B6A43F020027B689A6218
:10291C007B68DB6A43F001027B68DA627B681B68C8
:10292C005B6823F469417B681B683A690A435A6007
:10293C007B681B689A68284B13407A681268B968E0
:10294C000B4393607B689B68B3F5807F03D07B68F7
:10295C009B68012B04D17B681B69013B1B05FB6049
:10296C007B681B68DB6A23F470017B681B68FA6860
:10297C000A43DA627B681B689A68184B1340BA6882
:10298C009A420BD17B680022DA627B689B6A23F047
:10299C00030343F001027B689A6218E07B689B6A30
:1029AC0023F0120343F010027B689A627B68DB6AA7
:1029BC0043F001027B68DA620123FB7507E07B6858
:1029CC009B6A43F010027B689A620123FB75FB7DC6
:1029DC0018461837BD4680BDFDF7E1FFFE0E1FFF00
:1029EC0080B584B000AF78600023FB737B6893F8EC
:1029FC002430012B01D1022398E07B68012283F85B
:102A0C002420786800F0A4FA0346FB73FB7B002BB0
:102A1C0040F087807B689B6A23F4407323F00103AA
:102A2C0043F480727B689A627B681B68414A9342CC
:102A3C0005D1414B5B6803F47023002B15D17B68E7
:102A4C009B6A23F480127B689A627B681B685B68C4
:102A5C0003F48063002B26D07B689B6A23F44053DD
:102A6C0043F480527B689A621DE07B689B6A43F456
:102A7C0080127B689A627B681B682F4A934204D051
:102A8C007B681B682B4A93420DD12B4B5B6803F47C
:102A9C008063002B07D07B689B6A23F4405343F47C
:102AAC0080527B689A627B689B6A03F48053002B8C
:102ABC0006D07B68DB6A23F006027B68DA6202E0F0
:102ACC007B680022DA627B68002283F824207B6812
:102ADC001B686FF002021A607B681B689B6803F42A
:102AEC006023B3F5602F13D17B681B68114A9342A6
:102AFC0005D1114B5B6803F47023002B08D17B6864
:102B0C001B689A687B681B6842F4A0029A600CE010
:102B1C007B681B689A687B681B6842F480129A6019
:102B2C0003E07B68002283F82420FB7B18461037D7
:102B3C00BD4680BD002801400024014090B587B0FF
:102B4C0000AF7860396000237B610023FB600023B9
:102B5C003B61FFF73FFE78617B681B689B6803F461
:102B6C008073002B0BD07B689B6A43F020027B6840
:102B7C009A627B68002283F824200123D3E07B68CF
:102B8C001B685B6803F48073002B31D17B681B6876
:102B9C00DB6A03F47003002B2AD121E03B68B3F10C
:102BAC00FF3F1DD03B68002B07D0FFF713FE0246FA
:102BBC007B69D31A3A689A4212D27B681B681B68ED
:102BCC0003F00203002B0BD17B689B6A43F00402D9
:102BDC007B689A627B68002283F824200323A2E09E
:102BEC007B681B681B6803F00203002BD6D070E0D7
:102BFC004F4B1C68022001F095F90346B4FBF3F22D
:102C0C007B681B6819694B4B0B40002B18D17B68F8
:102C1C001B68D968484B0B40002B11D17B681B6893
:102C2C001969464B0B40002B08D17B681B68D9688F
:102C3C00434B0B40002B01D1142320E029231EE031
:102C4C007B681B6819693D4B0B40002B06D17B68D8
:102C5C001B68D9683A4B0B40002B0DD07B681B6866
:102C6C001969384B0B40002B08D17B681B68D9685D
:102C7C00344B0B40002B01D1542300E0FC2302FB0E
:102C8C0003F33B6121E03B68B3F1FF3F1AD03B6893
:102C9C00002B07D0FFF79EFD02467B69D31A3A68DA
:102CAC009A420FD2FB683A699A420BD97B689B6AAD
:102CBC0043F004027B689A627B68002283F824202C
:102CCC00032330E0FB680133FB60FB683A699A42EE
:102CDC00D9D87B681B686FF012021A607B689B6AFC
:102CEC0043F400727B689A627B681B689B6803F4F0
:102CFC006023B3F5602F15D17B681B7B002B11D1A2
:102D0C007B689B6A23F480727B689A627B689B6AFF
:102D1C0003F48053002B05D17B689B6A43F00102BE
:102D2C007B689A62002318461C37BD4690BD00BFD5
:102D3C003400002024499224244992009224491200
:102D4C00922449004992240080B483B000AF78608B
:102D5C007B681B68DB6C18460C37BD4680BC704723
:102D6C0080B485B000AF786039600023FB7300231A
:102D7C00BB607B6893F82430012B01D10223DCE08B
:102D8C007B68012283F824203B685B68062B1CD8E7
:102D9C007B681B68596B3B685A6813469B0013444D
:102DAC00053B1F2202FA03F3DB4319403B6818680A
:102DBC003B685A6813469B001344053B00FA03F228
:102DCC007B681B680A435A633CE03B685B680C2BCE
:102DDC001CD87B681B68196B3B685A6813469B00B0
:102DEC001344233B1F2202FA03F3DB4319403B68D5
:102DFC0018683B685A6813469B001344233B00FA3F
:102E0C0003F27B681B680A431A631BE07B681B6830
:102E1C00D96A3B685A6813469B001344413B1F22F6
:102E2C0002FA03F3DB4319403B6818683B685A68A5
:102E3C0013469B001344413B00FA03F27B681B686A
:102E4C000A43DA623B681B68092B1CD97B681B6838
:102E5C00D9683B681A6813465B0013441E3B072273
:102E6C0002FA03F3DB4319403B6898683B681A6825
:102E7C0013465B0013441E3B00FA03F27B681B688D
:102E8C000A43DA6019E07B681B6819693B681A68A9
:102E9C0013465B001344072202FA03F3DB43194089
:102EAC003B6898683B681A6813465B00134400FA49
:102EBC0003F27B681B680A431A613B681B68102B82
:102ECC0003D03B681B68112B32D17B681B681D4AF1
:102EDC00934225D17B681B689B6803F40003002B8D
:102EEC0026D17B681B689A687B681B6842F40002D9
:102EFC009A603B681B68102B1AD1134B1B68134A42
:102F0C00A2FB03239A0C13469B0013445B00BB608B
:102F1C0002E0BB68013BBB60BB68002BF9D107E04A
:102F2C007B689B6A43F020027B689A620123FB73E7
:102F3C007B68002283F82420FB7B18461437BD469F
:102F4C0080BC7047002401403400002083DE1B430A
:102F5C0080B584B000AF78600023FB600023BB60B9
:102F6C007B681B689B6803F00103012B40D07B68D6
:102F7C001B689A687B681B6842F001029A601F4BC1
:102F8C001B681F4AA2FB03239B0CBB6002E0BB68BF
:102F9C00013BBB60BB68002BF9D1FFF71BFCF86051
:102FAC001FE0FFF717FC0246FB68D31A022B18D957
:102FBC007B681B689B6803F00103012B11D07B68B5
:102FCC009B6A43F010027B689A627B68DB6A43F071
:102FDC0001027B68DA627B68002283F824200123DB
:102FEC0007E07B681B689B6803F00103012BD8D1B9
:102FFC00002318461037BD4680BD00BF34000020AA
:10300C0083DE1B4380B584B000AF78600023FB6087
:10301C007B681B689B6803F00103012B2ED17B6836
:10302C001B689A687B681B6822F001029A60FFF7A4
:10303C00D1FBF8601BE0FFF7CDFB0246FB68D31A0F
:10304C00022B14D97B681B689B6803F00103012BCE
:10305C000DD17B689B6A43F010027B689A627B6897
:10306C00DB6A43F001027B68DA62012307E07B68CC
:10307C001B689B6803F00103012BDCD0002318466E
:10308C001037BD4680BD000090B587B000AF7860AA
:10309C000023FB750023FB607B6893F82430012B25
:1030AC0001D1022397E07B68012283F82420786801
:1030BC00FFF7A8FF0346FB757868FFF749FF034647
:1030CC00FB75FB7D002B40F081807B689B6A23F4B1
:1030DC00885323F0020343F002027B689A62404B50
:1030EC001C68022000F01EFF0346B4FBF3F35B00E8
:1030FC00FB6002E0FB68013BFB60FB68002BF9D135
:10310C007B681B689A687B681B6842F008029A60AF
:10311C00FFF760FB38611BE0FFF75CFB02463B6985
:10312C00D31A0A2B14D97B681B689B6803F008031D
:10313C00002B0DD07B689B6A23F0120343F0100226
:10314C007B689A627B68002283F82420012342E08A
:10315C007B681B689B6803F00803002BDCD17B6841
:10316C001B689A687B681B6842F004029A60FFF740
:10317C0031FB38611BE0FFF72DFB02463B69D31A8C
:10318C000A2B14D97B681B689B6803F00403002B83
:10319C000DD07B689B6A23F0120343F010027B680E
:1031AC009A627B68002283F82420012313E07B6859
:1031BC001B689B6803F00403002BDCD17B689B6AC3
:1031CC0023F0030343F001027B689A627B680022C0
:1031DC0083F82420FB7D18461C37BD4690BD00BFEC
:1031EC003400002080B485B000AF78607B6803F0B9
:1031FC000703FB600C4BDB68BB60BA684FF6FF0340
:10320C001340BB60FB681A02BB68134343F0BF63F7
:10321C0043F40033BB60044ABB68D36000BF14376F
:10322C00BD4680BC704700BF00ED00E080B400AF2D
:10323C00044BDB681B0A03F007031846BD4680BC31
:10324C00704700BF00ED00E080B483B000AF0346D0
:10325C003960FB7197F90730002B0ADB3B68DAB257
:10326C000C4997F907301201D2B20B4483F80023B2
:10327C000AE03B68DAB20849FB7903F00F03043B20
:10328C001201D2B20B441A7600BF0C37BD4680BC7B
:10329C00704700BF00E100E000ED00E080B489B0B1
:1032AC0000AFF860B9607A60FB6803F00703FB615C
:1032BC00FB69C3F10703042B28BF0423BB61FB6923
:1032CC000433062B02D9FB69033B00E000237B612E
:1032DC004FF0FF32BB6902FA03F3DA43BB681A40C2
:1032EC007B699A404FF0FF317B6901FA03F3D943B4
:1032FC007B680B40134318462437BD4680BC70478F
:10330C0080B582B000AF78607B68013BB3F1807F01
:10331C0001D301230FE00A4A7B68013B53600F2164
:10332C004FF0FF30FFF790FF054B00229A60044BE3
:10333C0007221A60002318460837BD4680BD00BF1F
:10334C0010E000E080B582B000AF78607868FFF7DD
:10335C0049FF00BF0837BD4680BD80B586B000AFC1
:10336C000346B9607A60FB7300237B61FFF75EFF55
:10337C0078617A68B9687869FFF790FF024697F927
:10338C000F3011461846FFF75FFF00BF1837BD46D8
:10339C0080BD80B582B000AF78607868FFF7B0FF71
:1033AC00034618460837BD4680BD000080B48BB07C
:1033BC0000AF7860396000237B6200233B6261E1DF
:1033CC0001227B6A02FA03F3FB613B681B68FA6912
:1033DC001340BB61BA69FB699A4240F050813B686B
:1033EC005B68974A93425ED0954A934275D8954A4A
:1033FC00934258D0934A93426FD8934A934252D0F7
:10340C00914A934269D8914A93424CD08F4A934245
:10341C0063D88F4A934246D08D4A93425DD8122B83
:10342C002AD8122B59D801A252F823F0B334000831
:10343C008D3400089F340008E1340008E73400089C
:10344C00E7340008E7340008E7340008E7340008E4
:10345C00E7340008E7340008E7340008E7340008D4
:10346C00E7340008E7340008E7340008E7340008C4
:10347C0095340008A9340008764A934213D02CE006
:10348C003B68DB683B6229E03B68DB6804333B62EA
:10349C0024E03B68DB6808333B621FE03B68DB6879
:1034AC000C333B621AE03B689B68002B02D104236F
:1034BC003B6213E03B689B68012B05D108233B6200
:1034CC007B68FA691A6109E008233B627B68FA6938
:1034DC005A6103E000233B6200E000BFBB69FF2B95
:1034EC0001D87B6801E07B6804337B61BB69FF2BEF
:1034FC0002D87B6A9B0002E07B6A083B9B003B6125
:10350C007B691A680F213B6901FA03F3DB431A400C
:10351C00396A3B6901FA03F31A437B691A603B6809
:10352C005B6803F08053002B00F0A9804A4B9B6929
:10353C00494A43F001039361474B9B6903F0010334
:10354C00BB60BB68454A7B6A9B08023352F8233048
:10355C00FB607B6A03F003039B000F2202FA03F368
:10356C00DB43FA681340FB607B683D4A93420DD005
:10357C007B683C4A934207D07B683B4A934201D11B
:10358C00022304E0032302E0012300E000237A6A13
:10359C0002F0030292009340FA681343FB602F4938
:1035AC007B6A9B080233FA6841F823203B685B680E
:1035BC0003F48013002B06D02C4B9A682B49BB6963
:1035CC0013438B6006E0294B9A68BB69DB432749A0
:1035DC0013408B603B685B6803F40013002B06D030
:1035EC00224BDA682149BB691343CB6006E01F4BC1
:1035FC00DA68BB69DB431D491340CB603B685B68F1
:10360C0003F40033002B06D0184B5A681749BB69DA
:10361C0013434B6006E0154B5A68BB69DB431349F7
:10362C0013404B603B685B6803F48033002B1FD066
:10363C000E4B1A680D49BB6913430B601FE000BFAA
:10364C000000321000003110000022100000211088
:10365C000000121000001110001002400000014088
:10366C0000080140000C0140001001400004014022
:10367C000B4B1A68BB69DB43094913400B607B6A2F
:10368C0001337B623B681A687B6A22FA03F3002BD6
:10369C007FF496AE00BF00BF2C37BD4680BC704790
:1036AC000004014080B485B000AF78600B467B808D
:1036BC007B689A687B881340002B02D00123FB7334
:1036CC0001E00023FB73FB7B18461437BD4680BC1E
:1036DC00704780B483B000AF78600B467B80134694
:1036EC007B707B78002B03D07A887B681A6103E0AF
:1036FC007B881A047B681A6100BF0C37BD4680BCFE
:10370C007047000080B586B000AF78607B68002BF6
:10371C0001D1012372E27B681B6803F00103002BCB
:10372C0000F08780924B5B6803F00C03042B0CD0E9
:10373C008F4B5B6803F00C03082B12D18C4B5B682E
:10374C0003F48033B3F5803F0BD1894B1B6803F432
:10375C000033002B6CD07B685B68002B68D1012395
:10376C004CE27B685B68B3F5803F06D1804B1B68ED
:10377C007F4A43F4803313602EE07B685B68002B38
:10378C000CD17B4B1B687A4A23F480331360784B43
:10379C001B68774A23F4802313601DE07B685B6809
:1037AC00B3F5A02F0CD1724B1B68714A43F48023E4
:1037BC0013606F4B1B686E4A43F4803313600BE04D
:1037CC006B4B1B686A4A23F480331360684B1B688D
:1037DC00674A23F4802313607B685B68002B13D04B
:1037EC00FEF7F8FF386108E0FEF7F4FF02463B698C
:1037FC00D31A642B01D9032300E25D4B1B6803F43D
:10380C000033002BF0D014E0FEF7E4FF386108E041
:10381C00FEF7E0FF02463B69D31A642B01D9032360
:10382C00ECE1534B1B6803F40033002BF0D100E0A8
:10383C0000BF7B681B6803F00203002B63D04C4B6A
:10384C005B6803F00C03002B0BD0494B5B6803F057
:10385C000C03082B1CD1464B5B6803F48033002B04
:10386C0016D1434B1B6803F00203002B05D07B6879
:10387C001B69012B01D00123C0E13D4B1B6823F0D8
:10388C00F8027B685B69DB00394913430B603AE053
:10389C007B681B69002B20D0364B01221A60FEF787
:1038AC0099FF386108E0FEF795FF02463B69D31A91
:1038BC00022B01D90323A1E12D4B1B6803F002035A
:1038CC00002BF0D02A4B1B6823F0F8027B685B6955
:1038DC00DB00274913430B6015E0264B00221A60CE
:1038EC00FEF778FF386108E0FEF774FF02463B698B
:1038FC00D31A022B01D9032380E11D4B1B6803F063
:10390C000203002BF0D17B681B6803F00803002B2B
:10391C003AD07B689B69002B19D0174B01221A6097
:10392C00FEF758FF386108E0FEF754FF02463B698A
:10393C00D31A022B01D9032360E10D4B5B6A03F010
:10394C000203002BF0D0012000F0CEFA1CE00A4B51
:10395C0000221A60FEF73EFF38610FE0FEF73AFFD7
:10396C0002463B69D31A022B08D9032346E100BF58
:10397C00001002400000424280044242924B5B6ABB
:10398C0003F00203002BE9D17B681B6803F00403EE
:10399C00002B00F0A6800023FB758B4BDB6903F03A
:1039AC008053002B0DD1884BDB69874A43F0805341
:1039BC00D361854BDB6903F08053BB60BB6801238B
:1039CC00FB75824B1B6803F48073002B18D17F4B63
:1039DC001B687E4A43F480731360FEF7FBFE38616C
:1039EC0008E0FEF7F7FE02463B69D31A642B01D9B7
:1039FC00032303E1754B1B6803F48073002BF0D099
:103A0C007B68DB68012B06D16F4B1B6A6E4A43F057
:103A1C00010313622DE07B68DB68002B0CD16A4B31
:103A2C001B6A694A23F001031362674B1B6A664ADF
:103A3C0023F0040313621CE07B68DB68052B0CD1BC
:103A4C00614B1B6A604A43F0040313625E4B1B6AB2
:103A5C005D4A43F0010313620BE05B4B1B6A5A4A4D
:103A6C0023F001031362584B1B6A574A23F00403DB
:103A7C0013627B68DB68002B15D0FEF7ABFE386158
:103A8C000AE0FEF7A7FE02463B69D31A41F28832E0
:103A9C00934201D90323B1E04B4B1B6A03F00203A1
:103AAC00002BEED014E0FEF795FE38610AE0FEF72D
:103ABC0091FE02463B69D31A41F28832934201D9F6
:103ACC0003239BE0404B1B6A03F00203002BEED157
:103ADC00FB7D012B05D13C4BDB693B4A23F080532A
:103AEC00D3617B68DB69002B00F08780364B5B6809
:103AFC0003F00C03082B61D07B68DB69022B46D1E9
:103B0C00334B00221A60FEF765FE386108E0FEF7C1
:103B1C0061FE02463B69D31A022B01D903236DE0E7
:103B2C00294B1B6803F00073002BF0D17B681B6AD8
:103B3C00B3F5803F08D1244B5B6823F400327B68DB
:103B4C009B68214913434B601F4B5B6823F4741231
:103B5C007B68196A7B685B6A0B431B4913434B6098
:103B6C001B4B01221A60FEF735FE386108E0FEF7A8
:103B7C0031FE02463B69D31A022B01D903233DE0E7
:103B8C00114B1B6803F00073002BF0D035E0104B89
:103B9C0000221A60FEF71EFE386108E0FEF71AFEDE
:103BAC0002463B69D31A022B01D9032326E0064BAC
:103BBC001B6803F00073002BF0D11EE07B68DB69FF
:103BCC00012B07D1012319E00010024000700040C6
:103BDC00600042420B4B5B68FB60FB6803F4803275
:103BEC007B681B6A9A4206D1FB6803F470127B68EF
:103BFC005B6A9A4201D0012300E000231846183773
:103C0C00BD4680BD0010024080B584B000AF786026
:103C1C0039607B68002B01D10123D0E06A4B1B6813
:103C2C0003F007033A689A4210D9674B1B6823F0DC
:103C3C00070265493B6813430B60634B1B6803F039
:103C4C0007033A689A4201D00123B8E07B681B68ED
:103C5C0003F00203002B20D07B681B6803F00403E5
:103C6C00002B05D0594B5B68584A43F4E063536012
:103C7C007B681B6803F00803002B05D0534B5B6873
:103C8C00524A43F460535360504B5B6823F0F0028C
:103C9C007B689B684D4913434B607B681B6803F042
:103CAC000103002B40D07B685B68012B07D1474B8D
:103CBC001B6803F40033002B15D101237FE07B68D4
:103CCC005B68022B07D1414B1B6803F00073002B80
:103CDC0009D1012373E03D4B1B6803F00203002B59
:103CEC0001D101236BE0394B5B6823F003027B6845
:103CFC005B68364913434B60FEF76CFDF8600AE0D5
:103D0C00FEF768FD0246FB68D31A41F288329342F3
:103D1C0001D9032353E02D4B5B6803F00C027B6845
:103D2C005B689B009A42EBD1274B1B6803F007039F
:103D3C003A689A4210D2244B1B6823F0070222499E
:103D4C003B6813430B60204B1B6803F007033A6876
:103D5C009A4201D0012332E07B681B6803F0040314
:103D6C00002B08D0194B5B6823F4E0627B68DB689E
:103D7C00164913434B607B681B6803F00803002B48
:103D8C0009D0124B5B6823F460527B681B69DB0023
:103D9C000E4913434B6000F021F802460B4B5B6855
:103DAC001B0903F00F030A49CB5C22FA03F3094AFF
:103DBC001360094B1B681846FEF7CAFC0023184613
:103DCC001037BD4680BD00BF0020024000100240ED
:103DDC00CC480008340000203800002080B487B0A4
:103DEC0000AF0023FB600023BB6000237B6100233A
:103DFC007B6000233B611E4B5B68FB60FB6803F040
:103E0C000C03042B02D0082B03D027E0194B3B6189
:103E1C0027E0FB689B0C03F00F03174AD35C7B6015
:103E2C00FB6803F48033002B10D0114B5B685B0CE8
:103E3C0003F00103114AD35CBB607B680D4A03FBA2
:103E4C0002F2BB68B2FBF3F37B6104E07B680C4AC3
:103E5C0002FB03F37B617B693B6102E0054B3B6139
:103E6C0000BF3B6918461C37BD4680BC704700BF7D
:103E7C000010024000127A00E4480008F4480008E0
:103E8C0000093D0080B400AF024B1B681846BD46CC
:103E9C0080BC70473400002080B500AFFFF7F2FF04
:103EAC000246054B5B681B0A03F007030349CB5C16
:103EBC0022FA03F3184680BD00100240DC480008CB
:103ECC0080B500AFFFF7DEFF0246054B5B68DB0AEF
:103EDC0003F007030349CB5C22FA03F3184680BDB9
:103EEC0000100240DC48000880B485B000AF786058
:103EFC000A4B1B680A4AA2FB03235B0A7A6802FB83
:103F0C0003F3FB6000BFFB685A1EFA60002BF9D16B
:103F1C0000BF00BF1437BD4680BC70473400002082
:103F2C00D34D621080B588B000AF786000237B6100
:103F3C000023FB6100233B610023FB600023BB617A
:103F4C007B68102B0AD07B68102B00F28A807B6870
:103F5C00012B45D07B68022B75D082E0464B5B6809
:103F6C00FB60454B1B6803F08073002B7BD0FB6818
:103F7C009B0C03F00F03414AD35C3B61FB6803F4D9
:103F8C008033002B15D03C4B5B685B0C03F00103BA
:103F9C003B4AD35C7B61FB6803F48033002B0DD070
:103FAC00384A7B69B2FBF3F23B6902FB03F3FB611A
:103FBC0004E03B69344A02FB03F3FB612E4B5B6864
:103FCC0003F48003B3F5800F02D1FB69BB614AE0B7
:103FDC00FB695B002D4AA2FB03235B08BB6142E03B
:103FEC00254B1B6AFB60FB6803F44073B3F5807FC1
:103FFC0008D1FB6803F00203002B03D04FF40043FD
:10400C00BB611FE0FB6803F44073B3F5007F09D17B
:10401C00194B5B6A03F00203002B03D049F64043B3
:10402C00BB610FE0FB6803F44073B3F5407F1CD118
:10403C00114B1B6803F40033002B16D04FF22443B2
:10404C00BB6112E011E0FFF73BFF02460A4B5B68D5
:10405C009B0B03F0030301335B00B2FBF3F3BB6177
:10406C0004E000BF02E000BF00E000BFBB691846DF
:10407C002037BD4680BD00BF00100240F848000844
:10408C000849000800127A0000093D00ABAAAAAA50
:10409C0080B582B000AF78607B68002B01D1012322
:1040AC0042E07B6893F84130DBB2002B06D17B6891
:1040BC00002283F840207868FEF7C2FA7B6824223D
:1040CC0083F841207B681B68DA687B681B6822F4E4
:1040DC000052DA60786800F01DF97B681B681A6979
:1040EC007B681B6822F490421A617B681B685A69D2
:1040FC007B681B6822F02A025A617B681B68DA68AD
:10410C007B681B6842F40052DA607B6800225A64B8
:10411C007B68202283F841207B68202283F8422090
:10412C007B6800225A63002318460837BD4680BDC1
:10413C0080B58AB002AFF860B9603B601346FB8073
:10414C0000237B61FB6893F84130DBB2202B6DD1EF
:10415C00BB68002B02D0FB88002B01D1012366E049
:10416C00FB6800225A64FB68212283F84120FEF789
:10417C0031FB7861FB68FA889A84FB68FA88DA84E8
:10418C00FB689B68B3F5805F08D1FB681B69002B4B
:10419C0004D10023FB61BB68BB6103E0BB68FB611E
:1041AC000023BB612AE03B6800937B6900228021DD
:1041BC00F86800F040F80346002B01D0032336E0EA
:1041CC00FB69002B0BD1BB691B881A46FB681B686B
:1041DC00C2F308025A60BB690233BB6107E0FB699A
:1041EC001A78FB681B685A60FB690133FB61FB683A
:1041FC00DB8C9BB2013B9AB2FB68DA84FB68DB8CEC
:10420C009BB2002BCFD13B6800937B6900224021ED
:10421C00F86800F010F80346002B01D0032306E0E9
:10422C00FB68202283F84120002300E0022318467B
:10423C002037BD4680BD80B590B000AFF860B96046
:10424C003B601346FB7150E0BB6CB3F1FF3F4CD0AD
:10425C00BB6C002B07D0FEF7BDFA02463B68D31AA5
:10426C00BA6C9A4241D2FB681B680C33BB62BB6AC6
:10427C0053E8003F7B627B6A23F4D073FB63FB68DB
:10428C001B680C33FA6B7A633B63396B7A6B41E8CE
:10429C000023FB62FB6A002BE5D1FB681B6814331F
:1042AC007B617B6953E8003F3B613B6923F0010371
:1042BC00BB63FB681B681433BA6B3A62FB61F96928
:1042CC003A6A41E80023BB61BB69002BE5D1FB686E
:1042DC00202283F84120FB68202283F84220FB68CF
:1042EC00002283F8402003230FE0FB681B681A6848
:1042FC00BB681340BA689A420CBF01230023DBB29F
:10430C001A46FB799A429FD0002318464037BD4687
:10431C0080BD000080B584B000AF78607B681B68FE
:10432C001B6923F440517B68DA687B681B680A437D
:10433C001A617B689A687B681B691A437B685B69A6
:10434C001343BB607B681B68DB6823F4B05323F01A
:10435C000C037A681268B9680B43D3607B681B68DE
:10436C005B6923F440717B689A697B681B680A431C
:10437C005A617B681B682C4A934203D1FFF7A0FD5E
:10438C00F86002E0FFF788FDF860FA6813469B00BE
:10439C0013449A001A447B685B689B00B2FBF3F3EE
:1043AC00224AA2FB03235B091901FA6813469B00FE
:1043BC0013449A001A447B685B689B00B2FBF3F2CF
:1043CC001A4BA3FB02035B09642000FB03F3D31A13
:1043DC001B013233154AA2FB03235B0903F0F003E4
:1043EC001944FA6813469B0013449A001A447B68DC
:1043FC005B689B00B2FBF3F20C4BA3FB02035B0963
:10440C00642000FB03F3D31A1B013233074AA2FBCF
:10441C0003235B0903F00F027B681B680A449A6054
:10442C0000BF1037BD4680BD003801401F85EB51E1
:10443C0070B500260C4D0D4C641BA410A64209D17E
:10444C0000F022F800260A4D0A4C641BA410A64268
:10445C0005D170BD55F8043B98470136EEE755F889
:10446C00043B98470136F2E70C4900080C49000858
:10447C000C4900081049000803460244934200D13D
:10448C00704703F8011BF9E7F8B500BFF8BC08BC8E
:10449C009E467047F8B500BFF8BC08BC9E467047F6
:1044AC002020202020202020000000002020202080
:1044BC00454E54455220204C4F54202020200000C3
:1044CC003000000020202020202020202020202030
:1044DC002020202020202020200000002020202030
:1044EC00454E54455220204E414D45202020000081
:1044FC0020202020202020202020202020202020B0
:10450C002020000075672F696E000000200000005D
:10451C00313000002D0000004156455241474520E6
:10452C003A20000075672F696E636800204149537B
:10453C002044696769206D696320736D6172742012
:10454C002D203132200D0A000D000000204C4F545C
:10455C00204E4F203A2000000D0A000020544553F5
:10456C00542D23202020206D69632875672F696ED8
:10457C006368290D0A000000202000002020202064
:10458C002020202020200000202D2D2D2D2D2D2D04
:10459C002D2D2D2D2D2D2D2D2D2D2D2D2D2D2D204C
:1045AC000D00000020415645524147452020200077
:1045BC00202D2D2D2D2D2D2D2D2D2D2D2D2D2D2D2C
:1045CC002D2D2D2D2D2D2D2D200D0A0A0A0000002C
:1045DC00302D2D2D000000002D2D2D2D0000000064
:1045EC00202020454E5445522043462020200000D8
:1045FC00252839302D3131302900000057524F4ECB
:10460C00472050415353574F5244000052454144A8
:10461C005920464F522054484520544553540000CD
:10462C0020205445535420434F4D504C4554454441
:10463C0020200000454E5445522050415353574FB3
:10464C0052440000202043484F4F534520204F50E8
:10465C0054494F4E202000004C4F54004E414D45C4
:10466C000000000020202050524F43455353494E28
:10467C00472E2E2E20200000202020002E2E2E0033
:10468C0020202020202043414E434C454420202014
:10469C00202000005052494E540000004E45570057
:1046AC002020202044656C6574696E672E2E2E20A8
:1046BC00202000002020202020202020202020004E
:1046CC003A00000020202020000000002075672FF9
:1046DC00696E6368000000004C4F54204E4F203A26
:1046EC0000000000544553542D00000020202020D1
:1046FC00202020204F4B2020202020202020000094
:10470C00202020202052454A454354454420202057
:10471C0020200000002054547840007F2844443866
:10472C0000384444442800384444287F003854540A
:10473C0054180000087E09020018A4A49C78007F7D
:10474C00080404780000447D4000002040403D00F7
:10475C00007F102844000000417F4000007C04785A
:10476C000478007C0804047800384444443800FC85
:10477C00182424180018242418FC007C08040408AD
:10478C000048545454240004043F4424003C40404A
:10479C00207C001C2040201C003C4030403C00444D
:1047AC0028102844004C9090907C004464544C4455
:1047BC00007E1111117E007F49494936003E41416E
:1047CC004122007F4141413E007F49494949007FD8
:1047DC0009090909003E41415173007F0808087F0F
:1047EC000000417F4100002040413F01007F081440
:1047FC002241007F40404040007F020C027F007F3E
:10480C000408107F003E4141413E007F0909090622
:10481C00003E4151215E007F091929460026494975
:10482C0049320001017F0101003F4040403F001F21
:10483C002040201F003F4038403F006314081463A1
:10484C00000304780403006151494543003E51497B
:10485C00453E0000427F4000007249494946002114
:10486C0041494D33001814127F1000274545453936
:10487C00003C4A4949310041211109070036494998
:10488C00493600064949493E00000000000000007E
:10489C006060000000000014000000804020100840
:1048AC0000101010100001010101010100884820C6
:1048BC005048003C42818100008181423C00000054
:1048CC0000000000000000000102030406070809B4
:1048DC000000000001020304020304050607080996
:1048EC000A0B0C0D0E0F1010010200000203040540
:1048FC00060708090A0B0C0D0E0F10100102000020
:04490C00310100086D
:044910000D0100088D
:10491400202020202020202000006400F6289C3F36
:10492400A4709D3F48E19A3FAE47A13FB81EA53F02
:104934009A99993F9A99993FA4709D3F0000803FAE
:10494400A4709D3F0024F40010000000010000004A
:04000005080026E5E4
:00000001FF
